{
  "address": "0x9266dCae82Ec335F3C176fA9dFb7Ba86b659104C",
  "abi": [
    {
      "inputs": [
        {
          "internalType": "address",
          "name": "exampleExternalContractAddress",
          "type": "address"
        }
      ],
      "stateMutability": "nonpayable",
      "type": "constructor"
    },
    {
      "inputs": [],
      "name": "NoEtherInBalance",
      "type": "error"
    },
    {
      "anonymous": false,
      "inputs": [
        {
          "indexed": true,
          "internalType": "address",
          "name": "user",
          "type": "address"
        },
        {
          "indexed": false,
          "internalType": "uint256",
          "name": "amount",
          "type": "uint256"
        }
      ],
      "name": "Stake",
      "type": "event"
    },
    {
      "inputs": [
        {
          "internalType": "address",
          "name": "",
          "type": "address"
        }
      ],
      "name": "balances",
      "outputs": [
        {
          "internalType": "uint256",
          "name": "",
          "type": "uint256"
        }
      ],
      "stateMutability": "view",
      "type": "function"
    },
    {
      "inputs": [],
      "name": "deadline",
      "outputs": [
        {
          "internalType": "uint256",
          "name": "",
          "type": "uint256"
        }
      ],
      "stateMutability": "view",
      "type": "function"
    },
    {
      "inputs": [],
      "name": "exampleExternalContract",
      "outputs": [
        {
          "internalType": "contract ExampleExternalContract",
          "name": "",
          "type": "address"
        }
      ],
      "stateMutability": "view",
      "type": "function"
    },
    {
      "inputs": [],
      "name": "execute",
      "outputs": [],
      "stateMutability": "nonpayable",
      "type": "function"
    },
    {
      "inputs": [],
      "name": "executed",
      "outputs": [
        {
          "internalType": "bool",
          "name": "",
          "type": "bool"
        }
      ],
      "stateMutability": "view",
      "type": "function"
    },
    {
      "inputs": [],
      "name": "openForWithdraw",
      "outputs": [
        {
          "internalType": "bool",
          "name": "",
          "type": "bool"
        }
      ],
      "stateMutability": "view",
      "type": "function"
    },
    {
      "inputs": [],
      "name": "stake",
      "outputs": [],
      "stateMutability": "payable",
      "type": "function"
    },
    {
      "inputs": [],
      "name": "threshold",
      "outputs": [
        {
          "internalType": "uint256",
          "name": "",
          "type": "uint256"
        }
      ],
      "stateMutability": "view",
      "type": "function"
    },
    {
      "inputs": [],
      "name": "timeLeft",
      "outputs": [
        {
          "internalType": "uint256",
          "name": "",
          "type": "uint256"
        }
      ],
      "stateMutability": "view",
      "type": "function"
    },
    {
      "inputs": [],
      "name": "withdraw",
      "outputs": [],
      "stateMutability": "nonpayable",
      "type": "function"
    },
    {
      "stateMutability": "payable",
      "type": "receive"
    }
  ],
  "transactionHash": "0xab88dd3d6cd7abd9b175be648ff1196105fa065608a5f8b158f6a3787d471867",
  "args": [
    "0xBE74b2Ac707d96A580280d1d1b307Cbb36D780Ae"
  ],
  "numDeployments": 3,
  "solcInputHash": "c7e00ca499069801e60770c9d73edfa1",
  "bytecode": "0x608060405234801561001057600080fd5b506040516108c03803806108c083398101604081905261002f91610060565b600080546001600160a01b0319166001600160a01b03831617905561005742625eec0061008e565b600255506100b2565b600060208284031215610071578081fd5b81516001600160a01b0381168114610087578182fd5b9392505050565b600082198211156100ad57634e487b7160e01b81526011600452602481fd5b500190565b6107ff806100c16000396000f3fe6080604052600436106100955760003560e01c80633ccfd60b116100595780633ccfd60b1461014b57806342cde4e814610160578063614619541461017c5780639876a643146101915780639f75f227146101ab57600080fd5b80631300a6d1146100a957806327e235e3146100d157806329dcb0cf146100fe57806331a38c89146101145780633a4b66f11461014357600080fd5b366100a4576100a26101e3565b005b600080fd5b3480156100b557600080fd5b506100be6102b2565b6040519081526020015b60405180910390f35b3480156100dd57600080fd5b506100be6100ec366004610736565b60016020526000908152604090205481565b34801561010a57600080fd5b506100be60025481565b34801561012057600080fd5b5060035461013390610100900460ff1681565b60405190151581526020016100c8565b6100a26101e3565b34801561015757600080fd5b506100a26102d6565b34801561016c57600080fd5b506100be670de0b6b3a764000081565b34801561018857600080fd5b506100a2610562565b34801561019d57600080fd5b506003546101339060ff1681565b3480156101b757600080fd5b506000546101cb906001600160a01b031681565b6040516001600160a01b0390911681526020016100c8565b60025442106102395760405162461bcd60e51b815260206004820152601960248201527f5374616b696e6720706572696f642068617320656e6465642e0000000000000060448201526064015b60405180910390fd5b34610257576040516312d0690160e31b815260040160405180910390fd5b3360009081526001602052604081208054349290610276908490610784565b909155505060405134815233907febedb8b3c678666e7f36970bc8f57abf6d8fa2e828c0da91ea5b75bf68ed101a9060200160405180910390a2565b600060025442106102c35750600090565b426002546102d1919061079c565b905090565b60008054906101000a90046001600160a01b03166001600160a01b0316639d9a7fe96040518163ffffffff1660e01b815260040160206040518083038186803b15801561032257600080fd5b505afa158015610336573d6000803e3d6000fd5b505050506040513d601f19601f8201168201806040525081019061035a9190610764565b156103a75760405162461bcd60e51b815260206004820152601b60248201527f436f6e747261637420616c726561647920636f6d706c657465642e00000000006044820152606401610230565b6002544210156103f55760405162461bcd60e51b81526020600482015260196024820152782232b0b23634b732903737ba103932b0b1b432b2103cb2ba1760391b6044820152606401610230565b600354610100900460ff1661044c5760405162461bcd60e51b815260206004820152601760248201527f45786563757465206265666f72652077697468647261770000000000000000006044820152606401610230565b60035460ff166104965760405162461bcd60e51b81526020600482015260156024820152744e6f74206f70656e20666f7220776974686472617760581b6044820152606401610230565b33600090815260016020526040902054806104c4576040516312d0690160e31b815260040160405180910390fd5b336000818152600160205260408082208290555190919083908381818185875af1925050503d8060008114610515576040519150601f19603f3d011682016040523d82523d6000602084013e61051a565b606091505b505090508061055e5760405162461bcd60e51b815260206004820152601060248201526f2a3930b739b332b9103330b4b632b21760811b6044820152606401610230565b5050565b60008054906101000a90046001600160a01b03166001600160a01b0316639d9a7fe96040518163ffffffff1660e01b815260040160206040518083038186803b1580156105ae57600080fd5b505afa1580156105c2573d6000803e3d6000fd5b505050506040513d601f19601f820116820180604052508101906105e69190610764565b156106335760405162461bcd60e51b815260206004820152601b60248201527f436f6e747261637420616c726561647920636f6d706c657465642e00000000006044820152606401610230565b6002544210156106815760405162461bcd60e51b81526020600482015260196024820152782232b0b23634b732903737ba103932b0b1b432b2103cb2ba1760391b6044820152606401610230565b6003805461ff001916610100179055476106ae576040516312d0690160e31b815260040160405180910390fd5b670de0b6b3a76400004710156106cd576003805460ff19166001179055565b60008054906101000a90046001600160a01b03166001600160a01b031663522e1177476040518263ffffffff1660e01b81526004016000604051808303818588803b15801561071b57600080fd5b505af115801561072f573d6000803e3d6000fd5b5050505050565b600060208284031215610747578081fd5b81356001600160a01b038116811461075d578182fd5b9392505050565b600060208284031215610775578081fd5b8151801515811461075d578182fd5b60008219821115610797576107976107b3565b500190565b6000828210156107ae576107ae6107b3565b500390565b634e487b7160e01b600052601160045260246000fdfea26469706673582212206a27d8a4c813c5a17b4d34ce663c027fd0704fabf9d263afb9a8f04bdcc5b27864736f6c63430008040033",
  "devdoc": {
    "kind": "dev",
    "methods": {},
    "version": 1
  },
  "userdoc": {
    "kind": "user",
    "methods": {},
    "version": 1
  },
  "storageLayout": {
    "storage": [
      {
        "astId": 19,
        "contract": "contracts/Staker.sol:Staker",
        "label": "exampleExternalContract",
        "offset": 0,
        "slot": "0",
        "type": "t_contract(ExampleExternalContract)12"
      },
      {
        "astId": 23,
        "contract": "contracts/Staker.sol:Staker",
        "label": "balances",
        "offset": 0,
        "slot": "1",
        "type": "t_mapping(t_address,t_uint256)"
      },
      {
        "astId": 28,
        "contract": "contracts/Staker.sol:Staker",
        "label": "deadline",
        "offset": 0,
        "slot": "2",
        "type": "t_uint256"
      },
      {
        "astId": 30,
        "contract": "contracts/Staker.sol:Staker",
        "label": "openForWithdraw",
        "offset": 0,
        "slot": "3",
        "type": "t_bool"
      },
      {
        "astId": 32,
        "contract": "contracts/Staker.sol:Staker",
        "label": "executed",
        "offset": 1,
        "slot": "3",
        "type": "t_bool"
      }
    ],
    "types": {
      "t_address": {
        "encoding": "inplace",
        "label": "address",
        "numberOfBytes": "20"
      },
      "t_bool": {
        "encoding": "inplace",
        "label": "bool",
        "numberOfBytes": "1"
      },
      "t_contract(ExampleExternalContract)12": {
        "encoding": "inplace",
        "label": "contract ExampleExternalContract",
        "numberOfBytes": "20"
      },
      "t_mapping(t_address,t_uint256)": {
        "encoding": "mapping",
        "key": "t_address",
        "label": "mapping(address => uint256)",
        "numberOfBytes": "32",
        "value": "t_uint256"
      },
      "t_uint256": {
        "encoding": "inplace",
        "label": "uint256",
        "numberOfBytes": "32"
      }
    }
  }
}