{
  "address": "0xefd145C9398d3434611cbE41510aC19641460510",
  "abi": [
    {
      "inputs": [
        {
          "internalType": "address",
          "name": "exampleExternalContractAddress",
          "type": "address"
        }
      ],
      "stateMutability": "nonpayable",
      "type": "constructor"
    },
    {
      "inputs": [],
      "name": "DeadlineNotEnded",
      "type": "error"
    },
    {
      "inputs": [],
      "name": "NoBalanceToWithdraw",
      "type": "error"
    },
    {
      "inputs": [],
      "name": "NoEtherSent",
      "type": "error"
    },
    {
      "inputs": [],
      "name": "ThresholdIsMet",
      "type": "error"
    },
    {
      "inputs": [],
      "name": "ThresholdNotMet",
      "type": "error"
    },
    {
      "anonymous": false,
      "inputs": [
        {
          "indexed": false,
          "internalType": "address",
          "name": "",
          "type": "address"
        },
        {
          "indexed": false,
          "internalType": "uint256",
          "name": "",
          "type": "uint256"
        }
      ],
      "name": "Stake",
      "type": "event"
    },
    {
      "inputs": [
        {
          "internalType": "address",
          "name": "",
          "type": "address"
        }
      ],
      "name": "balances",
      "outputs": [
        {
          "internalType": "uint256",
          "name": "",
          "type": "uint256"
        }
      ],
      "stateMutability": "view",
      "type": "function"
    },
    {
      "inputs": [],
      "name": "deadline",
      "outputs": [
        {
          "internalType": "uint256",
          "name": "",
          "type": "uint256"
        }
      ],
      "stateMutability": "view",
      "type": "function"
    },
    {
      "inputs": [],
      "name": "exampleExternalContract",
      "outputs": [
        {
          "internalType": "contract ExampleExternalContract",
          "name": "",
          "type": "address"
        }
      ],
      "stateMutability": "view",
      "type": "function"
    },
    {
      "inputs": [],
      "name": "execute",
      "outputs": [],
      "stateMutability": "nonpayable",
      "type": "function"
    },
    {
      "inputs": [],
      "name": "stake",
      "outputs": [],
      "stateMutability": "payable",
      "type": "function"
    },
    {
      "inputs": [],
      "name": "threshold",
      "outputs": [
        {
          "internalType": "uint256",
          "name": "",
          "type": "uint256"
        }
      ],
      "stateMutability": "view",
      "type": "function"
    },
    {
      "inputs": [],
      "name": "timeLeft",
      "outputs": [
        {
          "internalType": "uint256",
          "name": "",
          "type": "uint256"
        }
      ],
      "stateMutability": "view",
      "type": "function"
    },
    {
      "inputs": [],
      "name": "withdraw",
      "outputs": [],
      "stateMutability": "nonpayable",
      "type": "function"
    },
    {
      "stateMutability": "payable",
      "type": "receive"
    }
  ],
  "transactionHash": "0x9bd070a37b850a64490f766160cdbbeb6e4111638ea6b1878dff81c59613fe1f",
  "args": [
    "0xBE74b2Ac707d96A580280d1d1b307Cbb36D780Ae"
  ],
  "numDeployments": 1,
  "solcInputHash": "106cb88eb9e8629a905b1ea7b4fe9cd8",
  "bytecode": "0x608060405234801561001057600080fd5b506040516107b13803806107b183398101604081905261002f9161011e565b600080546001600160a01b0319166001600160a01b03831617905561005542601e6101a7565b6002819055506100946040518060400160405280600b81526020016a31b7b739ba393ab1ba37b960a91b81525060025461009a60201b61044b1760201c565b506101cb565b6100e382826040516024016100b092919061014c565b60408051601f198184030181529190526020810180516001600160e01b03908116632d839cb360e21b179091526100e716565b5050565b6100fa816100fd60201b6104901760201c565b50565b60006a636f6e736f6c652e6c6f679050600080835160208501845afa505050565b60006020828403121561012f578081fd5b81516001600160a01b0381168114610145578182fd5b9392505050565b6040815260008351806040840152815b81811015610179576020818701810151606086840101520161015c565b8181111561018a5782606083860101525b50602083019390935250601f91909101601f191601606001919050565b600082198211156101c657634e487b7160e01b81526011600452602481fd5b500190565b6105d7806101da6000396000f3fe60806040526004361061007f5760003560e01c80633ccfd60b1161004e5780633ccfd60b1461010657806342cde4e81461011b57806361461954146101375780639f75f2271461014c57600080fd5b80631300a6d11461009357806327e235e3146100bb57806329dcb0cf146100e85780633a4b66f1146100fe57600080fd5b3661008e5761008c610184565b005b600080fd5b34801561009f57600080fd5b506100a8610200565b6040519081526020015b60405180910390f35b3480156100c757600080fd5b506100a86100d63660046104d3565b60016020526000908152604090205481565b3480156100f457600080fd5b506100a860025481565b61008c610184565b34801561011257600080fd5b5061008c61024f565b34801561012757600080fd5b506100a8670de0b6b3a764000081565b34801561014357600080fd5b5061008c610396565b34801561015857600080fd5b5060005461016c906001600160a01b031681565b6040516001600160a01b0390911681526020016100b2565b346101a2576040516341eceffb60e11b815260040160405180910390fd5b33600090815260016020526040812080543492906101c190849061055c565b9091555050604080513381523460208201527febedb8b3c678666e7f36970bc8f57abf6d8fa2e828c0da91ea5b75bf68ed101a910160405180910390a1565b6000600254421061023c57610236604051806040016040528060098152602001683a34b6b2b632b33a1d60b91b8152504261044b565b50600090565b4260025461024a9190610574565b905090565b60025442101561029d57610284604051806040016040528060098152602001683bb4ba34323930bb9d60b91b8152504261044b565b6040516387a4715360e01b815260040160405180910390fd5b670de0b6b3a76400004711156102c657604051632d03b38960e21b815260040160405180910390fd5b33600090815260016020526040902054806102f45760405163177b02e160e31b815260040160405180910390fd5b336000818152600160205260408082208290555190919083908381818185875af1925050503d8060008114610345576040519150601f19603f3d011682016040523d82523d6000602084013e61034a565b606091505b50509050806103925760405162461bcd60e51b815260206004820152601060248201526f2a3930b739b332b9103330b4b632b21760811b604482015260640160405180910390fd5b5050565b6002544210156103b9576040516387a4715360e01b815260040160405180910390fd5b670de0b6b3a76400004710156103e2576040516359fa4a9360e01b815260040160405180910390fd5b60008054906101000a90046001600160a01b03166001600160a01b031663522e1177476040518263ffffffff1660e01b81526004016000604051808303818588803b15801561043057600080fd5b505af1158015610444573d6000803e3d6000fd5b5050505050565b6103928282604051602401610461929190610501565b60408051601f198184030181529190526020810180516001600160e01b0316632d839cb360e21b1790526104b1565b60006a636f6e736f6c652e6c6f679050600080835160208501845afa505050565b6104ba81610490565b50565b634e487b7160e01b600052605160045260246000fd5b6000602082840312156104e4578081fd5b81356001600160a01b03811681146104fa578182fd5b9392505050565b6040815260008351806040840152815b8181101561052e5760208187018101516060868401015201610511565b8181111561053f5782606083860101525b50602083019390935250601f91909101601f191601606001919050565b6000821982111561056f5761056f61058b565b500190565b6000828210156105865761058661058b565b500390565b634e487b7160e01b600052601160045260246000fdfea26469706673582212206aeecabb90e2b4557e9f23d9d123f03fe775127fc05031c45ef5ae729847c97c64736f6c63430008040033",
  "devdoc": {
    "kind": "dev",
    "methods": {},
    "version": 1
  },
  "userdoc": {
    "kind": "user",
    "methods": {},
    "version": 1
  },
  "storageLayout": {
    "storage": [
      {
        "astId": 19,
        "contract": "contracts/Staker.sol:Staker",
        "label": "exampleExternalContract",
        "offset": 0,
        "slot": "0",
        "type": "t_contract(ExampleExternalContract)12"
      },
      {
        "astId": 23,
        "contract": "contracts/Staker.sol:Staker",
        "label": "balances",
        "offset": 0,
        "slot": "1",
        "type": "t_mapping(t_address,t_uint256)"
      },
      {
        "astId": 28,
        "contract": "contracts/Staker.sol:Staker",
        "label": "deadline",
        "offset": 0,
        "slot": "2",
        "type": "t_uint256"
      }
    ],
    "types": {
      "t_address": {
        "encoding": "inplace",
        "label": "address",
        "numberOfBytes": "20"
      },
      "t_contract(ExampleExternalContract)12": {
        "encoding": "inplace",
        "label": "contract ExampleExternalContract",
        "numberOfBytes": "20"
      },
      "t_mapping(t_address,t_uint256)": {
        "encoding": "mapping",
        "key": "t_address",
        "label": "mapping(address => uint256)",
        "numberOfBytes": "32",
        "value": "t_uint256"
      },
      "t_uint256": {
        "encoding": "inplace",
        "label": "uint256",
        "numberOfBytes": "32"
      }
    }
  }
}